:100000006F00607800000000A6040000AA04000051
:1000100000000000000000000000000000000000E0
:1000200000000000000000000000000000000000D0
:10003000A40F0000000000005607000000000000B0
:10004000580700005A0700005C0700005E07000028
:1000500060070000620700006407000066070000F8
:10006000680700006A0700006C0700006E070000C8
:100070007007000072070000740700007607000098
:10008000780700007A0700007C0700007E07000068
:1000900080070000820700008407000000000000C5
:1000A000511126C022C206C4828282441244A24058
:1000B000310182802A86014593F6150091C232955E
:1000C00085810606F5F9828000000000634E050276
:1000D00063C305042E86AA857D5515C285466378BF
:1000E000B6006356C00006068606E36CB6FE014500
:1000F00063E4C500918D558D85820582F5FA828075
:100100008682C93F2E8582823305A04063D70500D1
:10011000B305B040C1B7B305B0408682653F330533
:10012000A0408282868263C70500634905005D376F
:100130002E858282B305B040E35B05FE3305A04007
:10014000513F3305B040828200003D432A876373EC
:10015000C3029377F700BDEFADE5937606FF3D8AC6
:10016000BA960CC34CC30CC74CC74107E36BD7FE10
:1001700011E28280B306C3408A0697020000969679
:100180006780A6002307B700A306B7002306B700C1
:10019000A305B7002305B700A304B7002304B700E5
:1001A000A303B7002303B700A302B7002302B700DD
:1001B000A301B7002301B700A300B7002300B700D5
:1001C000828093F5F50F93968500D58D9396050162
:1001D000D58D61B793962700970200009696868288
:1001E000E78086FA9680C1171D8F3E96E374C3F8A8
:1001F000A5B7EFF2FFEA7111C881375500409306A9
:1002000031009307800C05470146930580071305CD
:100210000540EF00F03E110149BDEFF27FE8930782
:1002200000041305000B2384F180E1374145D137E9
:100230000145C137130520026D3F01455D3F1D4556
:100240004D3F375500401307800C9306104013862E
:1002500081809305800713050540EF00D029B1B5D3
:10026000EFF21FE49305F00F11E181451306004002
:1002700013859180D93D15BDEFF29FE2130540062D
:10028000EF00F04F1305E00AAD371305500D953719
:10029000014585371305800AA93F1305F003913FF7
:1002A0001305300DB9370145A937130500049137FF
:1002B0001305D0083D3F51452D3F13050002153F62
:1002C0000145053F1305100A2D371305800C15371E
:1002D0001305A00D393F4945293F1305E002113FA1
:1002E000130510023937014529371305F007113777
:1002F00013052002FD3D0145ED3D1D45DD3D130586
:100300001008C53D1305F00CED351305900DD535DE
:100310001305100FF93D1305B00DE13D1305000461
:10032000C93D1305400AF1351305F00AD9350145D9
:10033000053FE535B707002093870704054723A04D
:100340000700D8B3054595B39307F00763E0A7040A
:100350009307F00363ECB702B707002083C7470495
:1003600099C31336160093D735009E07AA979D8927
:10037000054713858180B315B7003E95E2058307D5
:100380001500E1856315E600DD8D0CB1828093C513
:10039000F5FFFD8DDDBFB7070020938707048AA313
:1003A000AEA38280EFF2DFCF0111B70700209821C2
:1003B00032C003D60704AE839305F0073A9663CAAA
:1003C000C50A1384070483C5130032202E969305B3
:1003D000F00363C0C50A1306E002AA846313C500D4
:1003E0000583938704FE01433EC683C513006368FB
:1003F000B300122032971AA0268505617DB13245DF
:100400001EC41AC23AC87D31A2431243424703A612
:1004100043001A9506052A961E2281423EC2824753
:1004200093B717003EC40A2063E4E200050375BFDA
:1004300092472E201695339657009A954205C2058D
:10044000931706011ECE16CC1ACA3AC84181C18143
:1004500063DA07000246CD3D42475243E242F2438F
:100460008502D1B72246CD35F243E242524342479C
:10047000C5BF814451B7EFF2BFC271112A84AE8467
:1004800032878307040081E73E85110139B93E8533
:100490003A86A6853AC0393783070400E316F5FE8D
:1004A00005040247F9BF7300203001A0EFF25FBFDF
:1004B000511185451305000202C002C202C4BD2DC0
:1004C000A1477C8037150140C1473EC48A858D47CE
:1004D000130505403EC23D2E3101C1BEEFF25FBCA7
:1004E000011109455D2BFD2AEF00D02C7165130524
:1004F0000520EF00702FB707002083A5870137255F
:10050000000013054540EF1040120126AA8537254B
:10051000000013054541EF10401137250000130579
:100520004542EF10A0125937EF0050213725060041
:100530009305E00E130505A8EF004073353B014419
:10054000B72400000145293B938584430A85EF10B9
:100550008014814501458135B70700209385070048
:1005600005460A85093F55391305401FEF00302124
:100570000545FD31B7250000938545440A85EF10F8
:10058000801181450145013DB70700200146938553
:1005900007000A85CD3551311305401FEF00301E8D
:1005A00011C80146014437150140A1451305054016
:1005B0002D2E49BF05460544FDB7B71702409843A5
:1005C000B706FFFC61111367170098C3D843758FF6
:1005D000D8C39843B706F7FEFD16758F98C39843A6
:1005E000B706FCFFFD16758F98C3D843C176FD167C
:1005F000758FD8C337079F0098C7984F13670702B6
:1006000098CF37170140832607401306074093F61B
:10061000F6F02320D7408326074093E606082320E0
:10062000D740094718CA02C002C2984FB706014016
:1006300021661367170098CFD842518FD8C29843CC
:10064000C16637060200558F98C3B7160240096786
:100650009C42F18F3EC2824785073EC0924781E7A8
:100660008247E397E7FEB71702409C431397E700E2
:100670006358070685473EC2124785476310F70651
:10068000B72702409843C176FD16719B98C39843E3
:100690001367170098C3B7170240D843D8C3D8438D
:1006A000758FD8C3D843C166558FD8C39843B70652
:1006B0000001558F98C3984393166700E3DD06FE4B
:1006C000D843B7160240719BD8C3D843136727009D
:1006D000D8C32147DC42B18BE39EE7FE2101828033
:1006E00002C259BFEFF2DF9B371702405C43370469
:1006F00000209146B18B130484016385D700A14685
:100700006382D704B7376E01938707601CC0B716A2
:100710000240DC420840918313F7F700B70700203E
:1007200093878700BA978C23DC4293F5F50F93F7F4
:1007300007083357B50081E7EFF0DF992A8718C023
:100740006FF0BF965C43B777DC02938707C07DBF2D
:1007500001A001A001A001A001A001A001A001A091
:1007600001A001A001A001A001A001A001A001A081
:1007700001A001A001A001A001A001A001A001A071
:1007800001A001A001A0970100209381A10B13817A
:1007900001FC17250000130565CC97050020938503
:1007A0006586170600201306E68963FAC5008322D2
:1007B000050023A0550011059105E3EAC5FE1705C4
:1007C0000020130525889385C1C16377B5002320D8
:1007D00005001105E36DB5FE930200087390023029
:1007E0008D4273904280970200009382A28193E22F
:1007F000320073905230EFF05FDC9702000093827A
:1008000022CE7390123473002030B7F7FF1F03A578
:10081000477C82809C45611122C226C013F70701E4
:1008200013F3F70001C7D8413363E3009221137734
:10083000F60F29C7832305000147130480029304A0
:1008400080048546B395E600B376B6006392D50280
:1008500093122700BD46B396560093C6F6FFB3F336
:100860007600B3125300B3E37200639787064CC956
:100870000507A146E317D7FC232075001307F00FE7
:100880006378C70483234500A146130480029304C0
:1008900080040547B312D700337756006394E20211
:1008A000139726000117BD45B395E50093C5F5FFE5
:1008B000B3F375003317E300B363770063928702E5
:1008C000232A550085064147E395E6FC232275005F
:1008D0001244824421018280E39C97F80CC949BFED
:1008E000E39297FE23285500F1BF19C20CC98280FC
:1008F0004CC98280EFF2CFFA111146212A842800D8
:100900002EC0792AC246C204C18093F404FCB745C4
:100910000F00938505243685C20436C2C180EFF0EE
:100920006FFB458D420541814AA01E209246C207B9
:10093000C183F99BC207C1831EA082479043E16730
:100940009387076A9315160063E6C7043685EFF0B0
:100950006FF8AA874205418191466373D50091479C
:100960001395070141814AAC1E20024793E7170007
:100970001EA01E2056233227C207C183D18E93F7B3
:1009800057BFD58F1EA016275E27D58F1EA47101D5
:100990006FF0AFF18247EA23B167FD176310F502EC
:1009A000B2953685EFF00FF342054181931745016B
:1009B00099E313651500A1675D8D75B7B387C50011
:1009C0008E07B385C7003685EFF0CFF04205418131
:1009D00091675D8DE1BF1E2189C593E717001EA1B8
:1009E0008280C207C183F99BC207C183CDBF1E218C
:1009F00089C593E707101EA18280C207C18393F7C0
:100A0000F7EFC207C183C5BF1E2189C593E7072041
:100A10001EA18280C207C18393F7F7DFC207C1839B
:100A2000C5BF1E2189C593E707401EA18280C2076A
:100A3000C18393F7F7BFC207C183C5BF0EA98280E8
:100A400093F7E50F19C293E71500C207C1831EA9EA
:100A500082805E290A2D42055D8D6D8D22052181E2
:100A60000D8D133515008280611102C002C293D72B
:100A7000C5012AC23EC08247A205A18199CB9247F7
:100A8000D1073EC29247884321016D8D3335A000C6
:100A900082809247C181E107EDB723A6A1C0828081
:100AA000EFF20FE0371702405C4391462A84B18B86
:100AB0006385D700A146638DD706B7376E0193874C
:100AC00007601CC0B7160240DC42918313F7F700A1
:100AD000B707002093870703BA978C23DC4218409E
:100AE00093F5F50F93F707083355B70081E73A857B
:100AF000EFF04FDE48C008C448C4B7170240DC43DB
:100B0000AD83FD8B13D737008A07F18BD98F93F60E
:100B100037010D476373D700D1173707002013073C
:100B2000C701BA978C23EFF0EFDA08C86FF0EFD760
:100B30005C43B777DC02938707C061B799C5371765
:100B400002401C4F5D8D08CF8280B7170240984F3E
:100B50001345F5FF798D88CF828099C537170240FC
:100B60005C4F5D8D48CF8280B7170240D84F134548
:100B7000F5FF798DC8CF8280EFF28FD21629F577F5
:100B8000FD17F58FF621DA252111D58F1EA95625DF
:100B9000FD779387379FF58FD6212A842EC0D58F76
:100BA0009625D58FB625D58F5EA55E29C207C18350
:100BB00093F7F7CF5D8F5AA94800DD35B74701405D
:100BC0009387078082456312F406C2475A2413951F
:100BD00017003E9542070E0541873E958C416358AC
:100BE00007048605EFF00FCF930540062AC0EFF00B
:100BF0006FCE824793144500930540063E85EFF083
:100C00002FD05E24C207C18763D507020E05930566
:100C1000400613052503EFF0EFCB1D89C98CC204F4
:100C2000C18006A461016FF04FC8B24745B78A057D
:100C300055BF12059305400613052503EFF08FC934
:100C40003D89E9BF91C55E250967D98F5EA5828080
:100C50005A25F977FD17F98FD5BF93F5F51F4EA1EA
:100C600082800A216D8D3335A0008280EFF24FC360
:100C70001301C1FD2AC22EC04545854502C402C6E6
:100C800002C802CA02CC02CE02D04D3D85453705CE
:100C90002000E1359146F1440D442C003715014008
:100CA000748426C822C6BD3689462C0037150140FB
:100CB000748426C822C6B93E824712473754004082
:100CC000FC86930700403ACAFC873707FFBF91674D
:100CD0004C08130504403ACC2310F10221391305C6
:100CE00004408545CD398545130504401D3B13015E
:100CF00041026FF08FBBEFF2AFBA31112A842EC6DA
:100D000032C436C83AC2612C2AC0B7050200228517
:100D1000A13B19C5692482471D8D9247E367F5FE03
:100D2000BD2C82471D8D92476369F500228585455C
:100D3000E1390D4551016FF04FB785452285B70464
:100D400003007531850437550040A685130505401D
:100D5000093319E5A92482471D8D9247E365F5FE05
:100D60003D2C82471D8D9247E372F5FCB24501464A
:100D70002285B7040700E93193842408A6852285DB
:100D8000C93919E5292C82471D8D9247E368F5FE84
:100D9000392482471D8D9247637FF500A247424761
:100DA000BA973EC6A2473247639CE7002285854535
:100DB000A139014541B722858545B93105459DBF1A
:100DC000A2472285B70407008C2393844408BD31D1
:100DD000A24785073EC4A6852285A53919E5C1220B
:100DE00082471D8D9247E368F5FE552A82471D8D87
:100DF0009247E369F5FA22858545393109451DBFDA
:100E0000EFF20FAA21112A842EC632C836C43ACA7C
:100E10003EC271222AC0B70502002285B13119C530
:100E2000BD2A82471D8D9247E367F5FE8D2A8247D2
:100E30001D8D92476369F50022858545F1360D4584
:100E400061016FF08FA685452285B7040300453602
:100E5000850437550040A68513050540DD3E19E59C
:100E60003D2A82471D8D9247E365F5FE0D2A824794
:100E70001D8D9247E372F5FCB24501462285B70409
:100E800007007D3E93842408A6852285D93619E57E
:100E9000392282471D8D9247E368F5FE0922824779
:100EA0001D8D92476367F50022858545B13E054556
:100EB00041BFC2452285B7040700493693844408E0
:100EC000A6852285793619E5D92882471D8D924756
:100ED000E368F5FEE92082471D8D9247637AF504A9
:100EE000A2475247BA973EC6A24732476397E700E8
:100EF00022858545113E0145A1B7A2472285B70449
:100F000007008C2393844408153EA24785073EC4FE
:100F1000A68522853D3E19E5592082471D8D9247C1
:100F2000E368F5FEAD2882471D8D9247E36EF5FA22
:100F300022858545EFF05FAD094519B7EFF24F9671
:100F40000567B7E700E037F400E023A0E7105C4056
:100F50009305803EF99B5CC0B707002003A587017D
:100F6000EFF04F9708C823240400BD471CC06FF062
:100F7000CF93938741C19843050798C38280138715
:100F800001C108C3938701C198437DFF8280938785
:100F900001C1984301C798437D1798C3828003A578
:100FA00041C18280B7F700E023A20700D937C537D7
:100FB00073002030EFF2CF8EB707002003A5870122
:100FC000B7157A0093850520EFF0CF901375F50FD4
:100FD000238DA1C093175500898F8A073E950E0572
:100FE000239CA1C06FF06F8CEFF28F8B2A84116568
:100FF0001111854513050502EFF05FB49307000258
:101000007C80371501408D473EC28A85E147130534
:1010100005403EC4EFF01F8022C637440140B707A9
:1010200008006C00130504803ECA02C8231C01009E
:10103000EFF09FB4854513050480293171016FF0ED
:10104000CF86EFF2EF857111AE840144635EC40276
:10105000B7470140138707803A859305000432C0E3
:101060000931B747014013870780024675D533879A
:10107000840083050700138507800504C205C1812C
:10108000EFF0BFBD0246D9B7328511016FF0EF8195
:10109000411106C62EC00DCD1841AA8705C358417F
:1010A0007D5511CB8546631BD70098472300070069
:1010B00023A207000545B24041018280984782463D
:1010C00014A39847050798C7D8437D17D8C3DDB741
:1010D00005468A85BD37F9BF011122CC2EC206CE46
:1010E00026CA2A8481479305000263450602924579
:1010F000BE95838505008DE563D8C70263D4E702FA
:10110000198E1305000293F526002AC089C501E750
:10111000930500032EC0858A814495EAB2840DA010
:101120008507F1B71D8EF1BF0146E1BF82452285DB
:101130003AC832C63EC4A93FA24732464247FD14D0
:10114000E34690FEB284635306008144058E63C774
:10115000E702A687924633879740369783050700B4
:1011600095EDB28463449004635306000146F24057
:101170006244D2443305F600056182801D8FBA8730
:1011800093050003228532C83EC63AC41137B247E0
:1011900022474246FD17EDF7BA9465BF228532C655
:1011A0003EC4FD35A247324685076DB7824522858C
:1011B00032C43EC2F13DFD142246924765B73971F3
:1011C00006DE22DC26DA3EC232833A8689ED92467A
:1011D0009307000301476C08FC86FD3DF250625402
:1011E000D25421618280AA843684AE8791CA29476D
:1011F00001446317E30063D50500B307B04005441D
:101200008646A309010213073103938666FC36C4A0
:101210009A853E8532CA3AC81AC63EC0EFE05FEEF4
:10122000A546824732434247524663D4A600A246AF
:101230003695130505039306F7FFA30FA7FE9A85BE
:101240003E8532CC3ACA1AC83EC636C0EFE09FE8A7
:10125000B24742435247624663F9670401CC29CA48
:101260009247898BB1C79305D002268532C40D35CC
:1012700022467D169247918B95C306479307100629
:1012800032C4930500032685631EF70211359305CA
:1012900080072685F53B22460904791616479246B3
:1012A00082452685153D229515BFAA8702478DB731
:1012B00082469307D0020144A38FF6FE9307E7FF0F
:1012C0003EC04DBFF13393058005E1B701458280F3
:1012D00001458280130181FD22D026CE06D22AC488
:1012E000AE82328402C681448385020089EDA24722
:1012F00081C781453E85693B925002542685F24460
:10130000130181028280930750026388F500224511
:1013100016C88504B53BC24239A8838712001387DB
:101320001200639CB7002245930550023AC88D33E2
:1013300042478504BA82850245BFD5DB9306B002D9
:101340006389D70463C8F600930630026386D70426
:10135000814705A09306D002638AD7009306000355
:10136000E398D7FE13872200894721A01387220024
:101370008547830607001306B0026383C6046341F2
:10138000D60213063002638BC602BA820145A54617
:1013900081A0138722006DBF138722009147D1BF20
:1013A0001306D0026389C60013060003E39FC6FC40
:1013B00093E7270031A005078547C1BF93E74700A2
:1013C0000507E1B713162500329506053A95850203
:1013D00003860200130706FD9375F70FE3F4B6FECC
:1013E0001307E0029946631EE60085028146A54583
:1013F00003860200130606FD1377F60F63F5E50278
:1014000036C6038702001306A006630DC70A6343AE
:10141000E6021306C0046307C70A13068006630CBE
:10142000C70881452DA813972600BA968606B2965E
:1014300085027DBF130640076306C7081306A00791
:101440006302C7081306C0068145631AC7000386F6
:1014500012008D456314E6008502914585020386DE
:101460000200930300061307100663C4C3001307AA
:1014700010049303700663C4C306930350066355B8
:1014800076189303700463C1C30493055004635D2D
:10149000B61613073004E310E6EA1840930344003D
:1014A00016CA230CE1001EC8A30C01000147BE862A
:1014B0002A862C0849A8038612008145E311E6FA22
:1014C000890271BF8502B1BF93063006E307D6FCDF
:1014D00063CFC606930680056303D602A9BD9306B3
:1014E00030076304D60463CBC6029306F006630498
:1014F000D60E9306000793E74700E31ED6E2914617
:101500006391D50C930384000C40504016CA3AC234
:101510003EC01EC8AA870147C14681A8930650074E
:10152000630AD6069306800745BF1840B726000019
:10153000930344009385064511C3BA85324716CA02
:101540001EC8BE862A862245EFF01FB90DA091461F
:101550006394D502930384000C40504016CA3AC2EB
:101560003EC01EC8AA870547A94622458533C24307
:10157000AA941E84D242C1B3B2460C4016C836C2E9
:101580003AC011042A87854629462245EFF03FC319
:10159000AA9451B39146639DD500930384000C40F7
:1015A000504016CA3AC23EC01EC8AA8701476DBF46
:1015B000B2460C4016C836C23AC011042A8781468A
:1015C000E1B7B24616C80C40414636C23AC01104D3
:1015D0002A8781465DBF9146639ED50093038400B0
:1015E0000C40504016CA3AC23EC01EC8AA870147E6
:1015F000A146A5BFB2460C4016C836C23AC0110477
:101600002A878146214651B70C401306840040408A
:101610003AC22A87224532C83EC02286B687A946EA
:1016200016CA7D31AA944244B1B71301C1FD2EC838
:1016300032CAAA851008014506C636CC3ACE3ED03D
:1016400032C04939B240130141028280411122C4A3
:1016500026C206C61C21AA840144DC81830731000E
:10166000050499EFA9479305310005460145DC8142
:10167000EFF03F9D2285B240224492444101828096
:101680000546930531000145EFF0BF9BB387840009
:101690009C23DC81E1B7AA87982185078505A38F64
:1016A000E7FE7DFB828000000000000000000000DB
:1016B000000000000000000000000000000000002A
:1016C0000000000000000000000000000000000C0E
:1016D000000C000C000C000C000C000C000C000CAA
:1016E000000C000C0000000C000C000000000000CA
:1016F0000000001B001B001B001B001B0000000063
:1017000000000000000000000000000000000000D9
:101710000000000000008019801980198019C07F26
:10172000C07F80190033C07FC07F00330033003397
:1017300000330000000000000000001E003F807524
:1017400080650074003C001E000780058065806590
:101750008075003F001E00040004000000000070BF
:1017600000D840D8C0D880D900730006000C801B78
:10177000C036C066C046C0068003000000000000FE
:101780000000001E003F003300330033001E000C39
:10179000C03CC066806380618063C03E801C0000E6
:1017A000000000000000000C000C000C000C000CFD
:1017B0000000000000000000000000000000000029
:1017C000000000000000000080000001000300068F
:1017D00000060004000C000C000C000C000C000CB7
:1017E0000004000600060003000180000020001035
:1017F0000018000C000C000400060006000600069D
:10180000000600060004000C000C00180010002068
:101810000000000C002D003F001E003300000000FF
:1018200000000000000000000000000000000000B8
:1018300000000000000000000000000C000C000C84
:10184000000CC0FFC0FF000C000C000C000C0000DE
:101850000000000000000000000000000000000088
:101860000000000000000000000000000000000078
:101870000000000C000C0004000400080000000040
:101880000000000000000000000000000000001E3A
:10189000001E00000000000000000000000000002A
:1018A0000000000000000000000000000000000038
:1018B0000000000000000000000000600060000068
:1018C0000000000000000003000300030006000603
:1018D00000060006000C000C000C000C001800189C
:1018E00000180000000000000000001E003F003350
:1018F000806180618061806D806D806180618061C8
:101900000033003F001E0000000000000000000641
:10191000000E001E00360026000600060006000627
:101920000006000600060006000600000000000099
:101930000000001E003F8073806180618001000311
:101940000006000C001800300060807F807F0000DF
:10195000000000000000001C003E00630063000364
:10196000000E000E00038001800180618073003F43
:10197000001E00000000000000000006000E000E27
:10198000001E001E0016003600360066807F807F35
:101990000006000600060000000000000000007FB6
:1019A000007F006000600060006E007F8063800147
:1019B000800180618073003F001E00000000000075
:1019C0000000001E003F803380610060006E007FD9
:1019D00080738061806180618033003F001E000061
:1019E000000000000000807F807F80010003000372
:1019F00000060006000C000C000C0008001800187F
:101A000000180000000000000000001E003F80637E
:101A1000806180610021001E003F806180618061E3
:101A20008061003F001E0000000000000000001E5A
:101A3000003F00738061806180618073803F801D02
:101A4000800180610073003F001E00000000000064
:101A500000000000000000000000000C000C00006E
:101A600000000000000000000000000C000C00005E
:101A70000000000000000000000000000000000066
:101A8000000C000C00000000000000000000000C32
:101A9000000C00040004000800000000000000002A
:101AA00080008003000E003800600038000E8003C4
:101AB00080000000000000000000000000000000A6
:101AC000000000000000807F807F00000000807F19
:101AD000807F000000000000000000000000000007
:101AE000000000000000000000400070001C000723
:101AF00080010007001C0070004000000000000092
:101B0000000000000000001F803FC071C060C000E6
:101B1000C00180030007000E000C000C0000000C48
:101B2000000C0000000000000000001E003F80319B
:101B300080718063806F806D806D806F80670060D2
:101B40000032003E001C0000000000000000000EFB
:101B5000000E001B001B001B001B80318031803FEA
:101B6000803F8031C060C060C060000000000000A5
:101B70000000007C007E0063006300630063007E61
:101B8000007E0063806180618063007F007E0000D2
:101B9000000000000000001E003F803180610060F6
:101BA0000060006000600060006080618031003F84
:101BB000001E0000000000000000007C007F0063A9
:101BC0008063806180618061806180618061006389
:101BD0000063007E007C0000000000000000807FA9
:101BE000807F0060006000600060007F007F006018
:101BF000006000600060807F807F000000000000C7
:101C00000000807F807F0060006000600060007FD7
:101C1000007F006000600060006000600060000005
:101C2000000000000000001E003F80318061006065
:101C30000060006080638063806180618031803FEC
:101C4000001E0000000000000000806180618061D3
:101C5000806180618061807F807F80618061806140
:101C60008061806180610000000000000000003F92
:101C7000003F000C000C000C000C000C000C000CD1
:101C8000000C000C000C003F003F000000000000B2
:101C900000008001800180018001800180018001BD
:101CA00080018001806180618073003F001E000020
:101CB000000000000000C0608061006300660066F4
:101CC000006C0078007C00660066006380618061C3
:101CD000C0600000000000000000006000600060C4
:101CE00000600060006000600060006000600060F4
:101CF0000060807F807F0000000000000000C07155
:101D0000C071C07BC07AC06AC06AC06EC064C06067
:101D1000C060C060C060C060C06000000000000023
:101D2000000080718071807980798079806D806D0C
:101D3000806D806580678067806780638063000056
:101D4000000000000000001E003F00338061806141
:101D50008061806180618061806180610033003FCB
:101D6000001E0000000000000000007E007F806375
:101D70008061806180618063007F007E0060006020
:101D80000060006000600000000000000000001E15
:101D9000003F00338061806180618061806180618B
:101DA000806580670033803F401E00000000000017
:101DB0000000007E007F8063806180618063007F1F
:101DC000007E00660063006380618061C060000087
:101DD000000000000000000E001F80318031003044
:101DE0000038001E00078003806180618031003F61
:101DF000001E0000000000000000C0FFC0FF000C3B
:101E0000000C000C000C000C000C000C000C000C72
:101E1000000C000C000C00000000000000008061BD
:101E200080618061806180618061806180618061AA
:101E3000806180618073003F001E00000000000090
:101E40000000C060C060C060803180318031001B04
:101E5000001B001B001B000E000E000E0004000003
:101E6000000000000000C0C0C0C0C0C0C0C0C0C0F2
:101E7000C0CC804C804C805E8052805280738061E8
:101E800080610000000000000000C0C08060806130
:101E90000033003B001E000C000C001E001F003B26
:101EA00080718061C0C00000000000000000C0C060
:101EB0008061806100330033001E001E000C000CA6
:101EC000000C000C000C000C000C000000000000D6
:101ED0000000803F803F8001000300030006000CEB
:101EE000000C0018001800300060807F807F000028
:101EF00000000000000F000F000C000C000C000C94
:101F0000000C000C000C000C000C000C000C000C71
:101F1000000C000C000F000F000000180018001843
:101F2000000C000C000C000C000600060006000669
:101F3000000300030003000000000000001E001E5C
:101F40000006000600060006000600060006000661
:101F5000000600060006000600060006001E001E21
:101F60000000000C000C001E0012003300338061E2
:101F70008061000000000000000000000000000080
:101F80000000000000000000000000000000000051
:101F90000000000000000000000000000000000041
:101FA00000000000E0FF0000000000380018000CF6
:101FB0000000000000000000000000000000000021
:101FC0000000000000000000000000000000000011
:101FD000000000000000001F803F80618001801F22
:101FE000803F80618063807FC03800000000000077
:101FF00000000060006000600060006E007F807381
:1020000080618061806180618073007F006E00006C
:102010000000000000000000000000000000001EA2
:10202000003F807380610060006080618073003FCA
:10203000001E0000000000000000800180018001FF
:102040008001801D803F807380618061806180613C
:102050008073803F801D0000000000000000000031
:10206000000000000000001E003F00738061807FC0
:10207000807F00608071003F001E000000000000B3
:102080000000C007C00F000C000C807F807F000C98
:10209000000C000C000C000C000C000C000C0000EC
:1020A000000000000000000000000000801D803FD4
:1020B000807380618061806180618073803F801D5A
:1020C00080018063007F003E0000006000600060CF
:1020D0000060006F807F80718061806180618061BD
:1020E0008061806180610000000000000000000647
:1020F000000600000000003E003E0006000600064C
:1021000000060006000600060006000000000000B1
:102110000006000600000000003E003E000600062B
:10212000000600060006000600060006000600463F
:10213000007E003C00000060006000600060806184
:1021400000630066006C007C0076006300638061C1
:10215000C0600000000000000000003E003E0006DD
:10216000000600060006000600060006000600063F
:10217000000600060006000000000000000000004D
:1021800000000000000080DDC0FFC0CEC0CCC0CC8D
:10219000C0CCC0CCC0CCC0CCC0CC00000000000083
:1021A00000000000000000000000006F807F8071D0
:1021B00080618061806180618061806180610000F8
:1021C0000000000000000000000000000000001EF1
:1021D000003F807380618061806180618073003F17
:1021E000001E0000000000000000000000000000D1
:1021F000006E007F80738061806180618061807388
:10220000007F006E00600060006000600000000061
:1022100000000000801D803F8073806180618061CC
:1022200080618073803F801D80018001800180017A
:10223000000000000000000000000067803F00393F
:10224000003000300030003000300030003000003E
:102250000000000000000000000000000000001E60
:10226000803F80610060007F803F80018061007F4F
:10227000001E000000000000000000000008001820
:102280000018007F007F00180018001800180018C0
:102290000018801F800F00000000000000000000F8
:1022A00000000000000080618061806180618061C9
:1022B000806180618063807F803D000000000000BD
:1022C00000000000000000000000C060803180318C
:1022D0008031001B001B001B000E000E00060000DA
:1022E000000000000000000000000000000080DD91
:1022F00080DD80DD00550055005500770077002215
:1023000000220000000000000000000000000000AB
:102310000000806100330033001E000C000C001E22
:102320000033003380610000000000000000000066
:102330000000000080618061803100330033001BA9
:10234000001B001B000E000E000E001C007C007025
:1023500000000000000000000000C07FC07F80017E
:1023600000030006000C00180030C07FC07F000092
:10237000000000008003800700060006000600063B
:102380000006000E001C001C000E000600060006E1
:10239000000600068007800300060006000600060F
:1023A00000060006000600060006000600060006FD
:1023B0000006000600060006000600060038003C85
:1023C000000C000C000C000C000C000E00070007B5
:1023D000000E000C000C000C000C000C003C00383F
:1023E0000000000000000000000000000000803835
:1023F000807F004700000000000000000000000097
:102400000000000053797374656D436C6B3A25646A
:102410000D0A00004368697049443A253038780D48
:102420000A0000004750494F20546F67676C6520D1
:10243000544553540D000000426C696E6B204F46AA
:1024400046000000426C696E6B204F4E0000000099
:08245000286E756C6C29000078
:102458000B120000A8160000010203040506070875
:102468000102030405060708006CDC0202040608E2
:1024780004080C10081018201020304020406080FC
:1024880001020304050607080102030405060708FC
:00000001FF
